{
  "contractName": "hashCashBackend",
  "abi": [
    {
      "inputs": [
        {
          "internalType": "contract IERC20",
          "name": "_tokenAddress",
          "type": "address"
        }
      ],
      "stateMutability": "nonpayable",
      "type": "constructor"
    },
    {
      "anonymous": false,
      "inputs": [
        {
          "indexed": false,
          "internalType": "address",
          "name": "from",
          "type": "address"
        }
      ],
      "name": "DoneStuff",
      "type": "event"
    },
    {
      "anonymous": false,
      "inputs": [
        {
          "indexed": false,
          "internalType": "address",
          "name": "from",
          "type": "address"
        },
        {
          "indexed": false,
          "internalType": "uint256",
          "name": "tokenAmount",
          "type": "uint256"
        }
      ],
      "name": "depositEvent",
      "type": "event"
    },
    {
      "anonymous": false,
      "inputs": [
        {
          "indexed": false,
          "internalType": "address",
          "name": "from",
          "type": "address"
        },
        {
          "indexed": false,
          "internalType": "uint256",
          "name": "date",
          "type": "uint256"
        }
      ],
      "name": "heey",
      "type": "event"
    },
    {
      "inputs": [],
      "name": "doStuff",
      "outputs": [],
      "stateMutability": "nonpayable",
      "type": "function"
    },
    {
      "inputs": [
        {
          "internalType": "address",
          "name": "_userAdd",
          "type": "address"
        }
      ],
      "name": "showTokenBal",
      "outputs": [
        {
          "internalType": "uint256",
          "name": "",
          "type": "uint256"
        }
      ],
      "stateMutability": "view",
      "type": "function",
      "constant": true
    },
    {
      "inputs": [],
      "name": "hey",
      "outputs": [
        {
          "internalType": "string",
          "name": "",
          "type": "string"
        }
      ],
      "stateMutability": "nonpayable",
      "type": "function"
    },
    {
      "inputs": [],
      "name": "thisaddress",
      "outputs": [
        {
          "internalType": "address",
          "name": "",
          "type": "address"
        }
      ],
      "stateMutability": "view",
      "type": "function",
      "constant": true
    },
    {
      "inputs": [
        {
          "internalType": "uint256",
          "name": "_amount",
          "type": "uint256"
        }
      ],
      "name": "app",
      "outputs": [],
      "stateMutability": "nonpayable",
      "type": "function"
    },
    {
      "inputs": [],
      "name": "addresscollector",
      "outputs": [
        {
          "internalType": "address",
          "name": "",
          "type": "address"
        }
      ],
      "stateMutability": "view",
      "type": "function",
      "constant": true
    },
    {
      "inputs": [
        {
          "internalType": "uint256",
          "name": "_amount",
          "type": "uint256"
        },
        {
          "internalType": "address",
          "name": "tokenTypeAddress",
          "type": "address"
        }
      ],
      "name": "updateUserDeposits",
      "outputs": [],
      "stateMutability": "nonpayable",
      "type": "function"
    },
    {
      "inputs": [
        {
          "internalType": "address",
          "name": "tokenTypeAddress",
          "type": "address"
        }
      ],
      "name": "showUserDeposits",
      "outputs": [
        {
          "internalType": "bool",
          "name": "",
          "type": "bool"
        }
      ],
      "stateMutability": "view",
      "type": "function",
      "constant": true
    },
    {
      "inputs": [
        {
          "internalType": "uint256",
          "name": "_amount",
          "type": "uint256"
        }
      ],
      "name": "depositTokens",
      "outputs": [],
      "stateMutability": "nonpayable",
      "type": "function"
    },
    {
      "inputs": [
        {
          "internalType": "uint256",
          "name": "_amount",
          "type": "uint256"
        },
        {
          "internalType": "address",
          "name": "tokenTypeAddress",
          "type": "address"
        }
      ],
      "name": "withdrawToken",
      "outputs": [
        {
          "internalType": "bool",
          "name": "",
          "type": "bool"
        }
      ],
      "stateMutability": "nonpayable",
      "type": "function"
    }
  ],
  "bytecode": "0x608060405234801561001057600080fd5b50604051610fa3380380610fa38339818101604052602081101561003357600080fd5b8101908080519060200190929190505050806000806101000a81548173ffffffffffffffffffffffffffffffffffffffff021916908373ffffffffffffffffffffffffffffffffffffffff16021790555050610f0f806100946000396000f3fe608060405234801561001057600080fd5b506004361061009e5760003560e01c8063a1cbe3d811610066578063a1cbe3d8146101cb578063bde2b57314610223578063be4b1772146102a6578063da5e1ddc1461030c578063dd49756e1461035a5761009e565b80630b69ca36146100a357806333e466ae146100ff5780636c762b951461012d5780636dfe4ed314610177578063874f33a1146101c1575b600080fd5b6100e5600480360360208110156100b957600080fd5b81019080803573ffffffffffffffffffffffffffffffffffffffff169060200190929190505050610388565b604051808215151515815260200191505060405180910390f35b61012b6004803603602081101561011557600080fd5b810190808035906020019092919050505061041b565b005b610135610502565b604051808273ffffffffffffffffffffffffffffffffffffffff1673ffffffffffffffffffffffffffffffffffffffff16815260200191505060405180910390f35b61017f61050a565b604051808273ffffffffffffffffffffffffffffffffffffffff1673ffffffffffffffffffffffffffffffffffffffff16815260200191505060405180910390f35b6101c9610512565b005b61020d600480360360208110156101e157600080fd5b81019080803573ffffffffffffffffffffffffffffffffffffffff169060200190929190505050610697565b6040518082815260200191505060405180910390f35b61022b61077e565b6040518080602001828103825283818151815260200191508051906020019080838360005b8381101561026b578082015181840152602081019050610250565b50505050905090810190601f1680156102985780820380516001836020036101000a031916815260200191505b509250505060405180910390f35b6102f2600480360360408110156102bc57600080fd5b8101908080359060200190929190803573ffffffffffffffffffffffffffffffffffffffff169060200190929190505050610826565b604051808215151515815260200191505060405180910390f35b6103586004803603604081101561032257600080fd5b8101908080359060200190929190803573ffffffffffffffffffffffffffffffffffffffff169060200190929190505050610a05565b005b6103866004803603602081101561037057600080fd5b8101908080359060200190929190505050610d38565b005b6000600260003373ffffffffffffffffffffffffffffffffffffffff1673ffffffffffffffffffffffffffffffffffffffff16815260200190815260200160002060008373ffffffffffffffffffffffffffffffffffffffff1673ffffffffffffffffffffffffffffffffffffffff16815260200190815260200160002060009054906101000a900460ff169050919050565b6000809054906101000a900473ffffffffffffffffffffffffffffffffffffffff1673ffffffffffffffffffffffffffffffffffffffff1663095ea7b330836040518363ffffffff1660e01b8152600401808373ffffffffffffffffffffffffffffffffffffffff1673ffffffffffffffffffffffffffffffffffffffff16815260200182815260200192505050602060405180830381600087803b1580156104c357600080fd5b505af11580156104d7573d6000803e3d6000fd5b505050506040513d60208110156104ed57600080fd5b81019080805190602001909291905050505050565b600030905090565b600033905090565b60003390506000809054906101000a900473ffffffffffffffffffffffffffffffffffffffff1673ffffffffffffffffffffffffffffffffffffffff166323b872dd82306103e86040518463ffffffff1660e01b8152600401808473ffffffffffffffffffffffffffffffffffffffff1673ffffffffffffffffffffffffffffffffffffffff1681526020018373ffffffffffffffffffffffffffffffffffffffff1673ffffffffffffffffffffffffffffffffffffffff1681526020018281526020019350505050602060405180830381600087803b1580156105f557600080fd5b505af1158015610609573d6000803e3d6000fd5b505050506040513d602081101561061f57600080fd5b8101908080519060200190929190505050507ffb55d69a924eb175f134fb8cbb875beb7c22325179dac4eee4af2bd5de6a2ec381604051808273ffffffffffffffffffffffffffffffffffffffff1673ffffffffffffffffffffffffffffffffffffffff16815260200191505060405180910390a150565b6000806000809054906101000a900473ffffffffffffffffffffffffffffffffffffffff1673ffffffffffffffffffffffffffffffffffffffff166370a08231846040518263ffffffff1660e01b8152600401808273ffffffffffffffffffffffffffffffffffffffff1673ffffffffffffffffffffffffffffffffffffffff16815260200191505060206040518083038186803b15801561073857600080fd5b505afa15801561074c573d6000803e3d6000fd5b505050506040513d602081101561076257600080fd5b8101908080519060200190929190505050905080915050919050565b60607f13e6b91c9b2288e1be3ab7628766d36eb493d1e06dff1cc2790210e517e661593342604051808373ffffffffffffffffffffffffffffffffffffffff1673ffffffffffffffffffffffffffffffffffffffff1681526020018281526020019250505060405180910390a16040518060400160405280600381526020017f6865790000000000000000000000000000000000000000000000000000000000815250905090565b600060011515600260003373ffffffffffffffffffffffffffffffffffffffff1673ffffffffffffffffffffffffffffffffffffffff16815260200190815260200160002060008473ffffffffffffffffffffffffffffffffffffffff1673ffffffffffffffffffffffffffffffffffffffff16815260200190815260200160002060009054906101000a900460ff16151514156109fa5760006108c933610697565b9050808411156108d857600080fd5b6000809054906101000a900473ffffffffffffffffffffffffffffffffffffffff1673ffffffffffffffffffffffffffffffffffffffff166323b872dd3033876040518463ffffffff1660e01b8152600401808473ffffffffffffffffffffffffffffffffffffffff1673ffffffffffffffffffffffffffffffffffffffff1681526020018373ffffffffffffffffffffffffffffffffffffffff1673ffffffffffffffffffffffffffffffffffffffff1681526020018281526020019350505050602060405180830381600087803b1580156109b457600080fd5b505af11580156109c8573d6000803e3d6000fd5b505050506040513d60208110156109de57600080fd5b81019080805190602001909291905050505060019150506109ff565b600090505b92915050565b60011515600260003373ffffffffffffffffffffffffffffffffffffffff1673ffffffffffffffffffffffffffffffffffffffff16815260200190815260200160002060008373ffffffffffffffffffffffffffffffffffffffff1673ffffffffffffffffffffffffffffffffffffffff16815260200190815260200160002060009054906101000a900460ff1615151415610b9f5781600160003373ffffffffffffffffffffffffffffffffffffffff1673ffffffffffffffffffffffffffffffffffffffff16815260200190815260200160002060008373ffffffffffffffffffffffffffffffffffffffff1673ffffffffffffffffffffffffffffffffffffffff1681526020019081526020016000205401600160003373ffffffffffffffffffffffffffffffffffffffff1673ffffffffffffffffffffffffffffffffffffffff16815260200190815260200160002060008373ffffffffffffffffffffffffffffffffffffffff1673ffffffffffffffffffffffffffffffffffffffff16815260200190815260200160002081905550610d34565b6001600260003373ffffffffffffffffffffffffffffffffffffffff1673ffffffffffffffffffffffffffffffffffffffff16815260200190815260200160002060008373ffffffffffffffffffffffffffffffffffffffff1673ffffffffffffffffffffffffffffffffffffffff16815260200190815260200160002060006101000a81548160ff02191690831515021790555081600160003373ffffffffffffffffffffffffffffffffffffffff1673ffffffffffffffffffffffffffffffffffffffff16815260200190815260200160002060008373ffffffffffffffffffffffffffffffffffffffff1673ffffffffffffffffffffffffffffffffffffffff1681526020019081526020016000205401600160003373ffffffffffffffffffffffffffffffffffffffff1673ffffffffffffffffffffffffffffffffffffffff16815260200190815260200160002060008373ffffffffffffffffffffffffffffffffffffffff1673ffffffffffffffffffffffffffffffffffffffff168152602001908152602001600020819055505b5050565b6000610d4333610697565b905081811015610d5257600080fd5b6000809054906101000a900473ffffffffffffffffffffffffffffffffffffffff1673ffffffffffffffffffffffffffffffffffffffff166323b872dd3330856040518463ffffffff1660e01b8152600401808473ffffffffffffffffffffffffffffffffffffffff1673ffffffffffffffffffffffffffffffffffffffff1681526020018373ffffffffffffffffffffffffffffffffffffffff1673ffffffffffffffffffffffffffffffffffffffff1681526020018281526020019350505050602060405180830381600087803b158015610e2e57600080fd5b505af1158015610e42573d6000803e3d6000fd5b505050506040513d6020811015610e5857600080fd5b8101908080519060200190929190505050507f47170ad76c9bbdb15dfbafd993321119023982de922af38d00684afaac15b8ea3383604051808373ffffffffffffffffffffffffffffffffffffffff1673ffffffffffffffffffffffffffffffffffffffff1681526020018281526020019250505060405180910390a1505056fea264697066735822122021f569d018d8875480db1381d1c8295d748bea1b20afed1950dd40f2f9cb31a964736f6c63430006020033",
  "source": "pragma solidity ^0.6.0;\n\nimport \"@openzeppelin/contracts/token/ERC20/IERC20.sol\";\n\ncontract hashCashBackend {\n\tIERC20 private HCtokenAddress;\n\t//mapping( userAddress => mapping( tokenAddress => value))\n\tmapping(address => mapping(address => uint256)) userDeposits;\n\t//mapping( userAddress => mapping( tokenAddress => boolean))\n\tmapping(address => mapping(address => bool)) userDepositBoolean;\n\tevent depositEvent(address from,uint256 tokenAmount);\n\tevent heey(address from,uint date);\n\tevent DoneStuff(address from);\n\tconstructor (IERC20 _tokenAddress) public {\n\t\tHCtokenAddress = _tokenAddress;\n\t}\n\tfunction doStuff() external {\n\t\taddress from = msg.sender;\n\n\t\tHCtokenAddress.transferFrom(from, address(this), 1000);\n\n\t\temit DoneStuff(from);\n\t}\n\n\tfunction showTokenBal(address _userAdd)public view returns(uint256) {\n\t\tuint256 a;\n\t\ta = HCtokenAddress.balanceOf(_userAdd);\n\t\treturn a;\n\t}\n\tfunction hey() public returns(string memory){\n\t\temit heey(msg.sender,now);\n\n\t\treturn 'hey';\n\t\t\n\t}\n\tfunction thisaddress()public view returns(address){\n\t\treturn address(this);\n\t}\n\t//deposit\n\t//approve and transferFrom\n\tfunction app(uint256 _amount) public {\n\t\tHCtokenAddress.approve(address(this), _amount);\n\t}\n\tfunction addresscollector() public view returns(address){\n\t\treturn msg.sender;\n\t}\n\tfunction updateUserDeposits(uint256 _amount,address tokenTypeAddress) public {\n\t\tif(userDepositBoolean[msg.sender][tokenTypeAddress] == true){\n\t\tuserDeposits[msg.sender][tokenTypeAddress] = userDeposits[msg.sender][tokenTypeAddress] + _amount;\n\t\t}\n\t\telse {\n\t\t\tuserDepositBoolean[msg.sender][tokenTypeAddress] = true;\n\t\t\tuserDeposits[msg.sender][tokenTypeAddress] = userDeposits[msg.sender][tokenTypeAddress] + _amount;\n\t\t}\n\t}\n\tfunction showUserDeposits(address tokenTypeAddress) public view returns(bool) {\n\t\treturn userDepositBoolean[msg.sender][tokenTypeAddress];\n\t}\n\t// function depositTokens(uint256 _amount,address tokenTypeAddress) public {\n\tfunction depositTokens(uint256 _amount) external {\n\t\tuint256 userBal;\n\t\tuserBal = showTokenBal(msg.sender);\n\t\trequire(userBal >= _amount);\n\t\t// HCtokenAddress.approve(address(this),_amount);\n\t\tHCtokenAddress.transferFrom(msg.sender, address(this), _amount);\n\n\t\temit depositEvent(msg.sender, _amount);\n\n\t}\n\t//token contract will approve\n\tfunction withdrawToken(uint _amount,address tokenTypeAddress) public returns(bool) {\n\t\tif(userDepositBoolean[msg.sender][tokenTypeAddress] == true){\n\t\t\tuint256 userBal;\n\t\t\tuserBal = showTokenBal(msg.sender);\n\t\t\trequire(_amount <= userBal);\n\t\t\tHCtokenAddress.transferFrom(address(this),msg.sender,_amount);\n\t\t\treturn true;\n\t\t}\n\t\telse{\n\t\t\treturn false;\n\t\t}\n\t}\n\t//withdraw\n\n}\n//0x7fF01A8833A4c251399dC0161054455b4df9c234\n//approve,function app call from hashCashBackend not working but working from token contract\n//maintain a deposit field ? for withdraw purpose?\n\n",
  "sourcePath": "/home/abhishek/clone/contracts/contracts/hashCashBackend.sol",
  "compiler": {
    "name": "solc",
    "version": "0.6.2+commit.bacdbe57.Emscripten.clang"
  },
  "schemaVersion": "3.2.0",
  "updatedAt": "2020-07-03T20:12:36.401Z",
  "networkType": "ethereum",
  "devdoc": {
    "methods": {}
  },
  "userdoc": {
    "methods": {}
  }
}