{
  "contractName": "hashCashBackendb",
  "abi": [
    {
      "inputs": [
        {
          "internalType": "contract IERC20",
          "name": "_tokenAddress",
          "type": "address"
        }
      ],
      "stateMutability": "nonpayable",
      "type": "constructor"
    },
    {
      "anonymous": false,
      "inputs": [
        {
          "indexed": false,
          "internalType": "address",
          "name": "from",
          "type": "address"
        },
        {
          "indexed": false,
          "internalType": "uint256",
          "name": "tokenAmount",
          "type": "uint256"
        }
      ],
      "name": "depositEvent",
      "type": "event"
    },
    {
      "inputs": [
        {
          "internalType": "address",
          "name": "_userAdd",
          "type": "address"
        }
      ],
      "name": "showTokenBal",
      "outputs": [
        {
          "internalType": "uint256",
          "name": "",
          "type": "uint256"
        }
      ],
      "stateMutability": "view",
      "type": "function",
      "constant": true
    },
    {
      "inputs": [],
      "name": "hey",
      "outputs": [
        {
          "internalType": "string",
          "name": "",
          "type": "string"
        }
      ],
      "stateMutability": "view",
      "type": "function",
      "constant": true
    },
    {
      "inputs": [],
      "name": "thisaddress",
      "outputs": [
        {
          "internalType": "address",
          "name": "",
          "type": "address"
        }
      ],
      "stateMutability": "view",
      "type": "function",
      "constant": true
    },
    {
      "inputs": [
        {
          "internalType": "uint256",
          "name": "_amount",
          "type": "uint256"
        }
      ],
      "name": "app",
      "outputs": [],
      "stateMutability": "nonpayable",
      "type": "function"
    },
    {
      "inputs": [],
      "name": "depositTokens",
      "outputs": [],
      "stateMutability": "nonpayable",
      "type": "function"
    },
    {
      "inputs": [
        {
          "internalType": "uint256",
          "name": "_amount",
          "type": "uint256"
        }
      ],
      "name": "withdrawToken",
      "outputs": [],
      "stateMutability": "nonpayable",
      "type": "function"
    }
  ],
  "bytecode": "0x608060405234801561001057600080fd5b506040516105ed3803806105ed8339818101604052602081101561003357600080fd5b8101908080519060200190929190505050806000806101000a81548173ffffffffffffffffffffffffffffffffffffffff021916908373ffffffffffffffffffffffffffffffffffffffff16021790555050610559806100946000396000f3fe608060405234801561001057600080fd5b50600436106100625760003560e01c806333e466ae1461006757806350baa622146100955780636c762b95146100c35780637c4b414d1461010d578063a1cbe3d814610117578063bde2b5731461016f575b600080fd5b6100936004803603602081101561007d57600080fd5b81019080803590602001909291905050506101f2565b005b6100c1600480360360208110156100ab57600080fd5b81019080803590602001909291905050506102d9565b005b6100cb6102dc565b604051808273ffffffffffffffffffffffffffffffffffffffff1673ffffffffffffffffffffffffffffffffffffffff16815260200191505060405180910390f35b6101156102e4565b005b6101596004803603602081101561012d57600080fd5b81019080803573ffffffffffffffffffffffffffffffffffffffff1690602001909291905050506103ff565b6040518082815260200191505060405180910390f35b6101776104e6565b6040518080602001828103825283818151815260200191508051906020019080838360005b838110156101b757808201518184015260208101905061019c565b50505050905090810190601f1680156101e45780820380516001836020036101000a031916815260200191505b509250505060405180910390f35b6000809054906101000a900473ffffffffffffffffffffffffffffffffffffffff1673ffffffffffffffffffffffffffffffffffffffff1663095ea7b330836040518363ffffffff1660e01b8152600401808373ffffffffffffffffffffffffffffffffffffffff1673ffffffffffffffffffffffffffffffffffffffff16815260200182815260200192505050602060405180830381600087803b15801561029a57600080fd5b505af11580156102ae573d6000803e3d6000fd5b505050506040513d60208110156102c457600080fd5b81019080805190602001909291905050505050565b50565b600030905090565b6000809054906101000a900473ffffffffffffffffffffffffffffffffffffffff1673ffffffffffffffffffffffffffffffffffffffff166323b872dd333060646040518463ffffffff1660e01b8152600401808473ffffffffffffffffffffffffffffffffffffffff1673ffffffffffffffffffffffffffffffffffffffff1681526020018373ffffffffffffffffffffffffffffffffffffffff1673ffffffffffffffffffffffffffffffffffffffff1681526020018281526020019350505050602060405180830381600087803b1580156103c157600080fd5b505af11580156103d5573d6000803e3d6000fd5b505050506040513d60208110156103eb57600080fd5b810190808051906020019092919050505050565b6000806000809054906101000a900473ffffffffffffffffffffffffffffffffffffffff1673ffffffffffffffffffffffffffffffffffffffff166370a08231846040518263ffffffff1660e01b8152600401808273ffffffffffffffffffffffffffffffffffffffff1673ffffffffffffffffffffffffffffffffffffffff16815260200191505060206040518083038186803b1580156104a057600080fd5b505afa1580156104b4573d6000803e3d6000fd5b505050506040513d60208110156104ca57600080fd5b8101908080519060200190929190505050905080915050919050565b60606040518060400160405280600381526020017f686579000000000000000000000000000000000000000000000000000000000081525090509056fea26469706673582212208fbd70696be7ec526de5516324996faf80559d0ba2dd7d5a33b6c97f61d4567e64736f6c63430006020033",
  "source": "pragma solidity ^0.6.0;\n\nimport \"@openzeppelin/contracts/token/ERC20/IERC20.sol\";\n\ncontract hashCashBackendb {\n\t\n\tIERC20 private HCtokenAddress;\n\n\tevent depositEvent(address from,uint256 tokenAmount);\n\tconstructor (IERC20 _tokenAddress) public {\n\t\tHCtokenAddress = _tokenAddress;\n\t}\n\n\n\tfunction showTokenBal(address _userAdd)public view returns(uint256) {\n\t\tuint256 a;\n\t\ta= HCtokenAddress.balanceOf(_userAdd);\n\t\treturn a;\n\t}\n\tfunction hey() public view returns(string memory){\n\t\treturn 'hey';\n\n\t}\n\tfunction thisaddress()public view returns(address){\n\t\treturn address(this);\n\t}\n\t//deposit \n\t//approve and transferFrom\n\tfunction app(uint _amount) public {\n\t\tHCtokenAddress.approve(address(this), _amount);\n\t}\n\tfunction depositTokens() public {\n//\t\tHCtokenAddress.approve(address(this),_amount);\n\t\tHCtokenAddress.transferFrom(msg.sender, address(this), 100);\n\n\t\t// emit depositEvent(msg.sender, _amount);\n\n\t}\n\t\n\tfunction withdrawToken(uint _amount) public {\n\t\t\n\t}\n\t//withdraw\n\n}\n//0x7fF01A8833A4c251399dC0161054455b4df9c234",
  "sourcePath": "/home/abhishek/clone/contracts/contracts/hashCashBackendb.sol",
  "compiler": {
    "name": "solc",
    "version": "0.6.2+commit.bacdbe57.Emscripten.clang"
  },
  "schemaVersion": "3.2.0",
  "updatedAt": "2020-07-03T20:12:36.408Z",
  "networkType": "ethereum",
  "devdoc": {
    "methods": {}
  },
  "userdoc": {
    "methods": {}
  }
}